:020000040800F2
:10000000E81200201D3500088D0100088F0100084E
:1000100093010008970100089B0100080000000000
:100020000000000000000000000000009F01000828
:10003000A101000800000000A3010008A5010008BC
:10004000373500083735000837350008A9020008A1
:1000500037350008373500083735000837350008D0
:1000600037350008373500083735000837350008C0
:1000700037350008373500083735000837350008B0
:1000800037350008373500083735000837350008A0
:100090000B020008373500083735000837350008EF
:1000A0003735000837350008373500083735000880
:1000B0003735000837350008373500083735000870
:1000C0003735000837350008373500083735000860
:1000D00037350008A70100081F020008373500085F
:1000E00037350008373500083735000800F002F8CA
:1000F00000F03CF80AA090E8000C82448344AAF186
:100100000107DA4501D100F031F8AFF2090EBAE883
:100110000F0013F0010F18BFFB1A43F0010318473B
:10012000E4390000043A0000103A24BF78C878C1CE
:10013000FAD8520724BF30C830C144BF04680C60ED
:10014000704700000023002400250026103A28BF35
:1001500078C1FBD8520728BF30C148BF0B60704739
:10016000002070471FB51FBD10B510BD03F063FC24
:100170001146FFF7F7FF00F0A8F803F081FC03B485
:10018000FFF7F2FF03BC02F0BDFE0000704700BFA6
:10019000FEE700BFFEE700BFFEE700BFFEE77047D7
:1001A00070477047704710B500BF08213F4801F005
:1001B000ADFB18B13D48001D0088C4B220213B486A
:1001C00001F0A4FB80B13949091D0988CAB2384938
:1001D0008878411C364B9970D91C0A54012240F290
:1001E0002441324801F0C3FA1021304801F08EFB5F
:1001F00050B1002240F224412C4801F0B8FA01200D
:100200002B4948700020887010BD10B5294A002184
:10021000294802F076F8274803F0B2F910BD70B50E
:1002200000BF0821254801F071FB58B12348001D8B
:100230000088C4B2214801F0FFFA054629461F484C
:1002400001F0F6FA20211D4801F060FB40B10020CA
:100250001B490870012240F22441184801F087FA36
:100260001021164801F052FB40B1002240F2244117
:10027000124801F07CFA002011490870242C02D1A8
:1002800000200F4908700E4801780078401C0C4A85
:1002900010700C484454104600783B2803DB3B2088
:1002A0001146087000BF70BD704700000038014063
:1002B0007C000020740C00200064004000440040DA
:1002C000000000207E0100207047482002F0B8FDA9
:1002D00002F029FE02F0DDFE02F0DAFE03F03EF944
:1002E0004FF4E13002F041FE4FF4165002F086FE6A
:1002F00044E002F00DFF00F0E5F802F071FA02F0C0
:10030000FEFA00B93AE000201D490870AFF247023A
:10031000012100F0EAF8012202211A4802F00CF94A
:1003200029E017480078012800D125E000F056FEAA
:100330001548007801280ED100220221114802F050
:10034000FBF800201049087000F08EFE0122022107
:100350000C4802F0F1F80D480078012802D1002085
:100360000A4908700A480078012804D10020084989
:10037000087000F02FFFD4E700BF00BFB9E700000E
:100380007C00002000640040340000203600002083
:100390003500002010B588B0002207A9012000F028
:1003A00059FA9DF81C00324908709DF81D004870EC
:1003B0009DF81E00887000226946022000F04AFA6B
:1003C0002B480099C0F80310BDF8040028490881A3
:1003D0000846DDF80610C0F80A10BDF80A002449E6
:1003E000C881084603A91EC910301EC000F0D0F90C
:1003F0001F49486408B010BD10B588B004461DA15F
:1004000003A803F07BF92068B0F8021203A800F0FB
:1004100096FC1BA103A803F0FFF901204FF4FA6139
:1004200018A318A2CDE9001018A103A802F015FA2C
:10043000012804D04C2216A11EA003F021F90120AE
:1004400041F288310FA2CDE9002102902268B2F872
:100450000212501C0BA318A202F090FB012804D03A
:100460004F220BA113A003F00BF908B010BD000040
:10047000C401002041542B514953454E443D0000D6
:100480000D0A00004E554C4C000000000D0A3E00C5
:100490002E2E5C557365725C4368616E5C576972A1
:1004A000656C6573734D6F64756C655C576C6D2E10
:1004B00063000000300000000D0A53454E44204FF9
:1004C0004B00000010B5FFF765FF10BD10B50446E6
:1004D000607918B92046FFF78FFF04E0232222A19C
:1004E00026A003F0CDF800BF10BD2DE9FF41054661
:1004F0000E46174600F034FB044604B104E02C22FB
:1005000019A11FA003F0BCF800BF6846B8B10320D2
:100510008DF804008DF80550009410200099A1F882
:10052000020202208DF8080001218DF80910032134
:100530008DF80A1001218DF80B10039700E0E4E715
:1005400000BFB4F80212481CA4F80202601C465412
:10055000684600F073FA204600F01BFB00240020E0
:100560000090BDE8FF8100002E2E5C557365725C23
:100570004368616E5C4368616E2E6300300000006A
:100580004E554C4C20213D20707062756600000075
:100590002DE9FF4104460E4615461F4620790C28DA
:1005A00001D100202071207CB04202D026740020AE
:1005B0002071E8E020790C2873D2DFE800F006B55E
:1005C000222840465F7378828EA22878682817D147
:1005D000606920B1606900F0DCFA0020606100F021
:1005E000BFFA6061606900B104E08F2289A190A028
:1005F00003F046F800202083022020710020A06034
:1006000093E00320207128788008A0608DE029788D
:10061000A06800EB8110A060A068B0F5FC7F0BD94A
:1006200000202071606900F0B4FA00206061A4220B
:1006300078A184A003F024F80420207175E005203F
:10064000207128788008E0606FE02978E06800EB8E
:100650008110E060D4E90210884202D106202071A6
:100660000BE000202071606900F093FA00206061C7
:10067000BB2268A173A003F003F856E0287868282D
:1006800002D1072020710BE000202071606900F08A
:1006900080FA00206061C8225EA16AA002F0F0FF2B
:1006A00043E041E02878A076082020713DE0A07E5C
:1006B00029780844A076208B0D2801D109202071CB
:1006C00033E0A07E29780844A076218BA068401DE5
:1006D000814201D10A20207127E02878A17E88423A
:1006E00002D10B2020710BE000202071606900F026
:1006F00050FA00206061EA2246A152A002F0C0FF39
:1007000013E02878162802D10C2020710BE000207D
:100710002071606900F03DFA00206061F7223DA180
:1007200048A002F0ADFF00E000BF00BF207940B15B
:100730006069401C218B084429780170208B401C83
:10074000208320790C281CD1208B6169A1F802023A
:1007500000BF684638B101208DF804008DF80560AF
:100760006069009000E0F4E700BF684600F066F9B9
:10077000606900F00EFA0020606120712083A060A3
:1007800000BF7F1E6D1C002F7FF414AFBDE8FF81FA
:100790002D480078012801DB0020704700202A49FD
:1007A0000978C1EBC101294A02EB810108710A20D5
:1007B00025490978C1EBC10102EB81014871002094
:1007C00021490978C1EBC10102EB810188601E4912
:1007D0000978C1EBC10102EB8101C8601A490978AF
:1007E000C1EBC10102EB8101486119481649097842
:1007F000C1EBC10142F8210013480078401C1249A6
:10080000087008460078401EC0EBC000114601EB9E
:100810008000C2E72E2E5C557365725C4368616E82
:100820005C436865636B4672616D652E6300000012
:100830004E554C4C20213D2063686B2D3E707062FC
:100840007566000030000000010000200C0200204E
:10085000910500082DE9F04706460F469046B94637
:10086000062E17D2DFE806F01603060A0E12144C05
:10087000032514E0124C241D1C2510E0104C2034DC
:1008800006250CE00E4C2634022508E00C4C2834DA
:10089000082504E03B220BA10FA002F0F1FE00BFEF
:1008A000B8F1000F05D12A462146484602F0C0FFA4
:1008B00004E02A464946204602F0BAFFBDE8F08728
:1008C000040000202E2E5C557365725C55544D5CFF
:1008D000506172616D2E6300300000002DE9FC4113
:1008E000054600272868441C6820207060716078E5
:1008F00020F00300401C6070E07820F00300401CF2
:10090000E070A07920F080008030A071A07920F004
:100910003F00A071E07B20F08000E073287AA07394
:10092000697AA07961F38610A071A97AE07B61F3FE
:100930004610E073E97AE07B61F30410E073002273
:1009400069460320FFF786FF9DF80000E071DDF89F
:100950000100A0609DF805002073A079C0F380100D
:1009600068B1002060737348007CE17B60F3030191
:10097000E1737048007C401C6E4908740CE0A0795B
:10098000C0F3801040B96B48407B60736948C07BFE
:10099000E17B60F30301E1732868B0F80202801F75
:1009A00034F8011F60F38F0121802088810860885E
:1009B00061F38F006080A4F101044FF0000605E0B0
:1009C0002868C01D805D3844C7B2761CB4F80100A9
:1009D000B6EB900FF4D32868B0F80202801C2968A7
:1009E000A1F802022868401C2968B1F802120844E4
:1009F00000F8027C16212868401C2A68B2F80222FE
:100A0000104400F8011CE07BC0F3001080B129689D
:100A1000487CA17B02290AD1012803D1454AE96813
:100A2000516104E0032802D1424AE968916100BFA4
:100A30002846FFF74BFDBDE8FC81704710B5044622
:100A40002079032802D12046FFF748FF20790228A9
:100A500002D12046FFF7F1FF2068411C10223548E3
:100A600002F0E6FE10BD7FB504460E4600F078F8B1
:100A7000054605B104E0C6222FA134A002F000FE15
:100A800000BF6846C0B103208DF8040000208DF837
:100A90000500009510200099A1F8020206208DF8AB
:100AA000080001218DF8091003218DF80A1000219A
:100AB0008DF80B10039100E0E3E700BF01210098DF
:100AC000B0F80222501C009BA3F802020098401CC0
:100AD00081540098B0F80222501C009BA3F8020237
:100AE0000098401C8454210A0098B0F80222501C3F
:100AF000009BA3F802020098401C81540098401CFF
:100B00000099B1F8021208443168016071684160CF
:100B10000098B0F8020208300099A1F80202684675
:100B2000FFF78CFF284600F034F8002500200090E5
:100B30007FBD0000280200202E2E5C557365725C7C
:100B400055544D5C55544D2E630000004E554C4C91
:100B500020213D207070627566666572000000009D
:100B6000002112E001EBC1100B4A12F8200058B925
:100B7000012001EBC112084B03F8220001EBC11068
:100B80001A4602EB80007047491C0429EAD3002072
:100B9000F9E700210170704744020020F849096814
:100BA00001607047F64902680A6070471CB502464A
:100BB0000B46002110680190186800909DF807000E
:100BC0009DF80340A04216D09DF807009DF8034011
:100BD000A04208DA9DF803009DF80740001BE94C8D
:100BE00004FB001107E09DF807009DF80340001B7F
:100BF000E44C04FB10119DF806009DF80240A04251
:100C000018D09DF806009DF80240A04209DA9DF830
:100C100002009DF80640001B4FF4616404FB0011C4
:100C200008E09DF806009DF80240001B4FF4616447
:100C300004FB10119DF805009DF80140A04216D05C
:100C40009DF805009DF80140A04208DA9DF80100DA
:100C50009DF80540001B3C2404FB001107E09DF8B3
:100C600005009DF80140001B3C2404FB10119DF879
:100C700004009DF80040A04214D09DF804009DF8A7
:100C80000040A04207DA9DF800009DF80440001BD8
:100C90000844014606E09DF804009DF80040001B52
:100CA000081A01461CBD08B56846FFF777FF9DF896
:100CB00000003B2806DA9DF80000401CC0B28DF809
:100CC000000038E09DF801003B2809DA00208DF88B
:100CD00000009DF80100401CC0B28DF801002AE020
:100CE0009DF8020017280BDA00208DF800008DF81F
:100CF00001009DF80200401CC0B28DF802001AE00D
:100D00009DF803001E280DDA00208DF800008DF8F4
:100D100001008DF802009DF80300401CC0B28DF860
:100D2000030008E000208DF800008DF801008DF828
:100D300002008DF803006846FFF734FF08BD38B5A0
:100D400005460C4690A00068009042F2107094FB9B
:100D5000F0F000284CD042F2107094FBF0F03030EC
:100D6000C0B28DF800006946284602F055FD42F2F7
:100D7000107094FBF0F100FB11404FF47A7190FB7E
:100D8000F1F03030C0B28DF800006946284602F01C
:100D900043FD4FF47A7094FBF0F100FB11406421A5
:100DA00090FBF1F03030C0B28DF800006946284663
:100DB00002F032FD642094FBF0F100FB11400A21A7
:100DC00090FBF1F03030C0B28DF800006946284643
:100DD00002F022FD0A2094FBF0F100FB11403030BC
:100DE000C0B28DF800006946284602F015FD93E078
:100DF0004FF47A7094FBF0F0D0B34FF47A7094FB18
:100E0000F0F03030C0B28DF800006946284602F09C
:100E100003FD4FF47A7094FBF0F100FB1140642164
:100E200090FBF1F03030C0B28DF8000069462846E2
:100E300002F0F2FC642094FBF0F100FB11400A2167
:100E400090FBF1F03030C0B28DF8000069462846C2
:100E500002F0E2FC0A2094FBF0F100FB114030307C
:100E6000C0B28DF800006946284602F0D5FC53E078
:100E7000FFE7642094FBF0F040B3642094FBF0F0B3
:100E80003030C0B28DF800006946284602F0C4FC3C
:100E9000642094FBF0F100FB11400A2190FBF1F07B
:100EA0003030C0B28DF800006946284602F0B4FC2C
:100EB0000A2094FBF0F100FB11403030C0B28DF8F5
:100EC00000006946284602F0A7FC25E00A2094FBB2
:100ED000F0F0C0B10A2094FBF0F03030C0B28DF8D1
:100EE00000006946284602F097FC0A2094FBF0F1C6
:100EF00000FB11403030C0B28DF800006946284632
:100F000002F08AFC08E004F13000C0B28DF8000065
:100F10006946284602F080FC38BD38B505460C46C7
:100F200019A000680090642094FBF0F070B3642076
:100F300094FBF0F03030C0B28DF8000069462846CE
:100F400002F06AFC642094FBF0F100FB11400A21DE
:100F500090FBF1F03030C0B28DF8000069462846B1
:100F600002F05AFC0A2094FBF0F100FB11403030F3
:100F7000C0B28DF800006946284602F04DFC2CE016
:100F8000370000208051010030000000FFE70A20F8
:100F900094FBF0F0C0B10A2094FBF0F03030C0B206
:100FA0008DF800006946284602F036FC0A2094FBC2
:100FB000F0F100FB11403030C0B28DF800006946FE
:100FC000284602F029FC08E004F13000C0B28DF898
:100FD00000006946284602F01FFC38BD00B585B008
:100FE000002204A90120FFF735FC002203A90420F8
:100FF000FFF730FC002201A90520FFF72BFC684613
:10100000FFF7CCFD69467448FFF7D0FD9DF812103C
:101010003C2291FBF2F1884202DD01206F49087009
:1010200069466F48FFF7C2FDBDF80C10884202DD2B
:1010300001206C4908709DF8040048B96A4800789E
:1010400001280FD16949087000206749087009E03C
:1010500069466348FFF7AAFD0299884202D9012038
:101060006249087005B000BD30B587B0002205A9FF
:101070000520FFF7EFFB9DF81400E0B90A2413E008
:10108000A4F10A0000EBC00159480844007A012885
:1010900008D1A4F10A0000EBC002554811182046FF
:1010A000FFF7E1FC601C84B2442CE9DD00205049CC
:1010B000891E088085E0FFF753FD054605B105E070
:1010C00040F203124BA14FA002F0DAFA00BF01A8D0
:1010D000C0B103208DF8080000208DF809000195AB
:1010E00010200199A1F8020206208DF80C000121C0
:1010F0008DF80D1003218DF80E1000218DF80F10C2
:10110000049100E0E3E700BF02210198B0F8022259
:10111000501C019BA3F802020198401C81543448E2
:10112000801E0078C1B20198B0F80222501C019BC9
:10113000A3F802020198401C81540A2436E0A4F16D
:101140000A0000EBC0012A480844007A01282BD18C
:101150000198B0F80222501C019BA3F802020198EA
:10116000401C8454210A0198B0F80222501C019BB3
:10117000A3F802020198401C81540198401C019977
:10118000B1F802120144A4F10A0000EBC0021848B1
:10119000104402680A60406848600198B0F8020292
:1011A00008300199A1F80202601C84B2442CC6DD0B
:1011B00001A8FFF743FC2846FFF7EBFC00250020C1
:1011C000019007B030BD10B5134A03210020FFF78E
:1011D0008CF910BD7047000043000020360000204D
:1011E0003F0000203500002078000020340000205F
:1011F000560A00202E2E5C557365725C6170692E54
:10120000630000004E554C4C20213D2070706275EB
:101210006666657200000000C9020008DB480068CD
:1012200040F00100D949086008464068D8490840A4
:10123000D649486008460068D6490840D349086046
:101240000846006820F4802008600846406820F4C2
:10125000FE0048604FF41F0088607047CB49096862
:1012600021F48031C94A11601146096821F48021B6
:101270001160B0F5803F03D0B0F5802F0ED106E0AD
:10128000C249096841F48031C04A116007E0BF4992
:10129000096841F4A021BD4A116000E000BF00BF11
:1012A000704710B501460022002300204A11012A90
:1012B00002D1B64C236806E0022A02D1B34C236A5D
:1012C00001E0B24C636A01F01F02012494401C4209
:1012D00001D0012000E0002010BD70B500240025E1
:1012E000002600BF3120FFF7DCFF0646641CB4F582
:1012F000A06F01D0002EF5D03120FFF7D2FF08B14A
:10130000012500E00025284670BD014600209F4AC7
:10131000106820F0F80040EAC100106070479E4954
:101320000860704702460020984B586820F47C10F3
:1013300042EA01031843954B586070479649086686
:10134000704701460020914A506820F0030008438E
:10135000506070478D48406800F00C0070470146AF
:1013600000208A4A506820F0F0000843506070471F
:1013700001460020854A506820F4E0600843506030
:10138000704701460020814A506820F4605040EACE
:10139000C1005060704729B17C4A527A02437B4BAE
:1013A0005A7204E0794A527A8243784B5A727047F3
:1013B0007A490860704701460020744A506820F45A
:1013C00040400843506070470021754A11706F4AD1
:1013D00082F82010012802D0042808D103E001215E
:1013E0006F4A117004E005216D4A117000E000BFE2
:1013F00000BF70476B49086070476449096A014340
:10140000624A11627047674944390860704730B5D5
:1014100000210022002400235C4D6D6805F00C01C2
:1014200021B1042905D0082923D105E05E4D0560CE
:1014300022E05D4D05601FE0544D6D6805F47012AB
:10144000524D6D6805F48034022505EB92421CB9BB
:10145000564D554305600BE04C4D6D6815F4003F4B
:1014600003D0524D5543056002E04F4D5543056092
:1014700002E04D4D056000BF00BF444D6D6805F0B2
:10148000F00109094A4D6B5C0568DD4045603F4D40
:101490006D6805F4E061090A454D6B5C4568DD4007
:1014A00085603A4D6D6805F46051C90A404D6B5C2A
:1014B0004568DD40C560354D6D6805F44041890BD8
:1014C0003C4D6B5CC568B5FBF3F5056130BD29B1DA
:1014D0002E4A526902432D4B5A6104E02B4A52694D
:1014E00082432A4B5A61704729B1284A92690243C4
:1014F000264B9A6104E0254A92698243234B9A6104
:10150000704729B1214AD2690243204BDA6104E0D5
:101510001E4AD26982431D4BDA61704729B11B4ACA
:10152000D2680243194BDA6004E0184AD268824359
:10153000164BDA60704729B1144A12690243134B03
:101540001A6104E0114A12698243104B1A61704714
:1015500014494039086070470F49C86470470B4907
:10156000C87170470948406A40F080700749486276
:10157000704701460020054A92680A4201D00120C6
:1015800000E0002070470149887270470010024057
:101590000000FFF8FFFFF6FE00004242D800424282
:1015A000201002408004424200127A0000093D00EF
:1015B000470000205700002010B50446FB48844235
:1015C00009D101218803FFF7A9FF00214FF48040D2
:1015D000FFF7A4FF32E0F648844209D10121480414
:1015E000FFF7A9FF00214FF40030FFF7A4FF25E02B
:1015F000F048844209D101218804FFF79CFF0021B3
:101600004FF48020FFF797FF18E0EB48844209D1A0
:101610000121C804FFF78FFF00214FF40020FFF7DE
:101620008AFF0BE0E548844208D101210805FFF755
:1016300082FF00214FF48010FFF77DFF10BD2DE9E0
:10164000F04786B005460E460024A24600BFA146DC
:101650000027B08900B100BF2F462C8A4CF6FF70DE
:101660000440F08804432C82AC894EF6F310044009
:10167000B08831890843718908430443AC81AC8A3E
:101680004FF6FF400440B0890443AC8201A8FFF745
:10169000BEFEC648874202D1DDF810A001E0DDF8A9
:1016A0000CA0A88910F4004F08D00AEBCA0000EB88
:1016B0000A1031684900B0FBF1F807E00AEBCA00F4
:1016C00000EB0A1031688900B0FBF1F86420B8FB28
:1016D000F0F004012009642101FB1089A88910F4AD
:1016E000004F08D0322000EBC900B0FBF1F000F051
:1016F0000700044308E0322000EB09106421B0FB2E
:10170000F1F000F00F0004432C8106B0BDE8F08733
:101710004FF41651016000218180C18001810C21AC
:10172000418100218181704710B502460020108A56
:101730004FF2FF0318400B884C8823438C882343C7
:10174000CC8823431843108210BD002101804180C2
:101750008180C180704721B1828942F40052828128
:1017600004E082894DF6FF731A4082817047F0B51C
:1017700003460024002600250020A1F510676A3FDB
:1017800000D100BF1846C1F3421401F01F06012723
:1017900007FA06F5012C01D10C3004E0022C01D12E
:1017A000103000E014301AB107682F43076002E0E0
:1017B0000768AF430760F0BD1AB1838A0B43838289
:1017C00002E0838A8B4383827047028A4FF6F0736C
:1017D0001A400282028A0A430282704782894FF2CB
:1017E000FF731A40828182890A438281704721B146
:1017F000828942F00202828104E082894FF6FD7301
:101800001A4082817047028A4FF6DF731A400282C3
:10181000028A0A430282704721B1028A42F480425E
:10182000028204E0028A4BF6FF731A40028270477C
:10183000C1F308028280704701468888C0F308001F
:101840007047818941F0010181817047028BD2B2DA
:101850000283028B42EA012202837047028B02F468
:101860007F420283028B0A430283704721B1828A3E
:1018700042F02002828204E0828A4FF6DF731A402F
:101880008282704721B1828A42F01002828204E093
:10189000828A4FF6EF731A408282704721B1828AA2
:1018A00042F00802828204E0828A4FF6F7731A40FF
:1018B0008282704721B1828942F40042828103E032
:1018C0008289C2F30E028281704721B1828A42F47A
:1018D0000062828204E0828A4FF2FF731A408282A1
:1018E0007047828A4FF6FB731A408282828A0A43CB
:1018F0008282704721B1828A42F00202828204E031
:10190000828A4FF6FD731A40828270470246002099
:10191000B1F5007F00D100BF13880B4201D0012038
:1019200000E00020704701F40072B2F5007F00D1A2
:1019300000BFCA430280704770B5024600240023EE
:1019400000250020A1F510666A3E00D100BFC1F35A
:10195000421501F01F03012606FA03F3012D02D1FF
:101960009689334006E0022D02D1168A334001E009
:10197000968A33400C12012606FA04F41688344085
:1019800013B10CB1012000E0002070BD10B50022A1
:101990000023A1F510646A3C00D100BF0A120124A3
:1019A0009440A3B2DC43048010BD00000038014025
:1019B0000044004000480040004C004000500040FF
:1019C00031490143314A1160704770B5002100234D
:1019D0000F22C4780CB32D4C246804F4E064C4F5E1
:1019E000E064210AC1F10403CA40447804FA03F117
:1019F0008478144021430901254C0678A1550478C8
:101A000004F01F050124AC4005786D114FF0E0266D
:101A100006EB8505C5F8004109E0047804F01F05D0
:101A20000124AC401B4D0678761145F8264070BD68
:101A3000194A0A400243154B1B1F1A60704739B1FF
:101A4000124A121D12680243104B1B1D1A6006E059
:101A50000E4A121D126882430C4B1B1D1A60704700
:101A6000042808D14FF0E021096941F004014FF04A
:101A7000E022116107E04FF0E021096921F0040143
:101A80004FF0E022116170470000FA050CED00E014
:101A900000E400E080E100E080FFFF1F10B5044695
:101AA000CA48844208D101210420FFF737FD0021F4
:101AB0000420FFF733FD46E0C548844208D10121E8
:101AC0000820FFF72BFD00210820FFF727FD3AE053
:101AD000C048844208D101211020FFF71FFD0021DA
:101AE0001020FFF71BFD2EE0BB48844208D10121E6
:101AF0002020FFF713FD00212020FFF70FFD22E03B
:101B0000B648844208D101214020FFF707FD00219B
:101B10004020FFF703FD16E0B148844208D10121BF
:101B20008020FFF7FBFC00218020FFF7F7FC0AE094
:101B3000AC48844207D101218015FFF7EFFC00215A
:101B4000A015FFF7EBFC10BD10B501210846FFF70B
:101B5000E5FC00210120FFF7E1FC10BD2DE9F0417B
:101B6000024600250026002000230024002791F8CB
:101B700003C00CF00F0591F803C01CF0100F03D048
:101B800091F802C04CEA050591F800C0BCF1000FC5
:101B900031D0146800202BE04FF0010C0CFA00F358
:101BA000B1F800C00CEA03069E4220D183004FF03A
:101BB0000F0C0CFA03F7BC4305FA03FC4CEA0404CF
:101BC00091F803C0BCF1280F06D14FF0010C0CFABC
:101BD00000FCC2F814C00AE091F803C0BCF1480F41
:101BE00005D14FF0010C0CFA00FCC2F810C0401CEB
:101BF0000828D1D31460B1F800C0BCF1FF0F34DD68
:101C0000546800202EE000F1080C4FF0010808FA9B
:101C10000CF3B1F800C00CEA03069E4221D1830008
:101C20004FF00F0C0CFA03F7BC4305FA03FC4CEA27
:101C3000040491F803C0BCF1280F05D100F1080C91
:101C400008FA0CF8C2F8148091F803C0BCF1480FF0
:101C500007D100F1080C4FF0010808FA0CF8C2F89F
:101C60001080401C0828CED35460BDE8F0814FF6A8
:101C7000FF710180022181700421C170704702460A
:101C8000002093680B4201D0012000E00020704743
:101C90000146886880B2704702460020D3680B4234
:101CA00001D0012000E0002070470146C86880B2E2
:101CB000704701617047416170470AB1016100E0FE
:101CC00041617047C16070474FF480320A438261BE
:101CD0008161826182698269704702460020424BBD
:101CE00018684FF68073184040EA021008433E4BD4
:101CF000186070473D49C8617047F0B50A46002337
:101D000000240021002500F00046B6F1004F02D16A
:101D1000354EF16901E0344E7168C0F3034583B27A
:101D200000F44016B6F5401F08D121F070612E4E28
:101D3000766826F070662C4F7E6012E000F4801604
:101D4000B6F5801F06D1032606FA05F4A14341F03B
:101D5000706106E0460D360103FA06F6B14341F024
:101D6000706122B1460D360103FA06F6314300F0E8
:101D70000046B6F1004F02D11B4EF16101E01A4E50
:101D80007160F0BD30B500228B071C0F0F2303FAE2
:101D900004F2154B08338C1053F824309343124C43
:101DA00008348D1044F8253023468C1053F8243025
:101DB0008C07240F00FA04F423430B4C08348D10D5
:101DC00044F8253030BD0A490860704700080140DA
:101DD000000C0140001001400014014000180140B7
:101DE000001C014000200140000001400000204292
:101DF000DC00204210B50446FE48844209D101218E
:101E00004806FFF798FB00214FF00070FFF793FBA7
:101E100008E001218806FFF78EFB00214FF080606B
:101E2000FFF789FB10BD30B502460020002314687F
:101E300024F002041460146844F00104146000E00B
:101E40005B1C546814F0010F03D1A3F57F44FF3CE1
:101E5000F6D1546814F0010F01D100206CE08C79A8
:101E6000012C04D1146844F08004146003E0146869
:101E700024F080041460CC79012C04D1146844F05F
:101E80004004146003E0146824F0400414600C7AE9
:101E9000012C04D1146844F02004146003E0146899
:101EA00024F0200414604C7A012C04D1146844F00E
:101EB0001004146003E0146824F0100414608C7A99
:101EC000012C04D1146844F00804146003E0146881
:101ED00024F008041460CC7A012C04D1146844F076
:101EE0000404146003E0146824F0040414608C7883
:101EF000A407CD7844EA05640D7944EA05444D7998
:101F000044EA05540D886D1E2C43D461146824F0F6
:101F100001041460002300E05B1C546814F0010FFE
:101F200003D0A3F57F44FF3CF6D1546814F0010FB1
:101F300001D0002000E0012030BD10B50021837ADF
:101F4000012202FA03F1AC4A126842F00102AA4BE4
:101F50001A60A94A1C3212688A43A74B1C331A60C4
:101F6000027BCAB9A44A0C3212688A43A24B0C33D2
:101F70001A604288C38842EA03439F4A4032847A07
:101F800042F834300288838842EA03439A4A403256
:101F9000847A02EBC4025360027B012A19D1964A6B
:101FA0000C3212680A43944B0C331A60428803883F
:101FB00042EA0343904A4032847A42F83430C2887D
:101FC000838842EA03438C4A4032847A02EBC4029B
:101FD0005360C27A3AB9884A121D12688A43864B06
:101FE0001B1D1A6006E0844A121D12680A43824BC8
:101FF0001B1D1A60028932B97F4A143212688A4363
:102000007D4B14331A600289012A06D17A4A1432B0
:1020100012680A43784B14331A60427B012A06D1B6
:10202000754A1C3212680A43734B1C331A60724A99
:10203000126822F00102704B1A6010BD00218171FC
:10204000C171017241728172C1728170C1700321CC
:1020500001710221417101210180704766490968BF
:1020600041F00101644A11601146096843F60E729D
:102070009143614A11601146096841EA00211160EB
:102080001146096821F001011160704721B1026811
:1020900042F48032026003E0026822F4803202607F
:1020A0007047E1B1026842F0800202604FF4C272F0
:1020B000125842F480734FF4C27213504FF4CA7234
:1020C000125842F480734FF4CA7213504FF4D27214
:1020D000125842F480734FF4D27213501BE002681E
:1020E00022F0800202604FF4C272125822F4807310
:1020F0004FF4C27213504FF4CA72125822F4807314
:102100004FF4CA7213504FF4D272125822F48073F3
:102110004FF4D2721350704710B5024600209368F6
:1021200003F08063B3F1806F00D110E0936803F097
:102130000063B3F1006F01D1012008E0936803F060
:102140008053B3F1805F01D1022000E00420042815
:1021500079D002F5C07303EB00131B6803F0010490
:1021600002F5C07303EB00131C600B7A7BB94B7A4A
:102170000C8843EA445302F5C07404EB001424684D
:10218000234302F5C07404EB0014236010E00B7AC3
:102190004C6843EAC4034C7A234302F5C07404EB51
:1021A00000142468234302F5C07404EB0014236078
:1021B0008B7A03F00F038B7202F5C07303EB0013ED
:1021C0005B6823F00F0402F5C07303EB00135C603F
:1021D00002F5C07303EB00135B688C7A234302F5AE
:1021E000C07404EB001463608B7B1C064B7B44EAD9
:1021F000034403E000640040006600400B7B44EAB7
:102200000323CC7A234302F5C07404EB0014A360CB
:102210008B7C1C064B7C44EA03440B7C44EA03237E
:10222000CC7B234302F5C07404EB0014E36002F599
:10223000C07303EB00131B6843F0010402F5C07385
:1022400003EB00131C6010BD10B50246002321B142
:10225000012907D002290FD109E09068F84C00EA63
:1022600004030BE09068F74C00EA040306E0906872
:10227000F54C00EA040301E0002300BF00BFF34C6B
:10228000181BA34216D007DC83B16FF080601818CA
:102290000ED0022818D111E0B0F5007F10D0EC4C20
:1022A000001909D0B0F5003F0ED10BE002230DE07C
:1022B00000230BE0002309E0002307E0012305E0F1
:1022C000012303E0012301E0002300BF00BFD8B2D7
:1022D00010BD21B1012907D002290FD109E0826880
:1022E00042F0800282600AE0826842F4004282602A
:1022F00005E0826842F40002826000E000BF00BF97
:10230000704710B500F5D87303EB01131B6803F099
:1023100004031372137A53B900F5D87303EB011356
:102320001B6840F2FF7404EA5353136009E000F5A0
:10233000D87303EB01131B686FF0604404EAD30306
:10234000536000F5D87303EB01131B6803F002031D
:10235000537200F5D87303EB01135B6803F00F03AE
:10236000937200F5D87303EB01135B681B0AD374F7
:1023700000F5D87303EB01139B68D37200F5D87393
:1023800003EB01139B681C0A147300F5D87303EB6D
:1023900001139B681C0C547300F5D87303EB0113F5
:1023A0009B681B0E937300F5D87303EB0113DB6876
:1023B000D37300F5D87303EB0113DB681C0A1474A4
:1023C00000F5D87303EB0113DB681C0C547400F5A3
:1023D000D87303EB0113DB681B0E937421B9C36838
:1023E00043F02003C36003E0036943F0200303616B
:1023F00010BD21B9C26842F02002C26003E0026948
:1024000042F02002026170470246002019B9D368E9
:1024100003F0030006E0012903D1136903F0030070
:1024200000E00020704710B502460B4600204FF632
:10243000FF71BBB9146824F0020444F00104146075
:1024400000E0491E546804F00304012C01D0002967
:10245000F7D1546804F00304012C01D0002032E0CD
:10246000012030E0012B13D1146824F00304146020
:1024700000E0491E546814F0030F01D00029F8D180
:10248000546814F0030F01D000201CE001201AE072
:10249000022B17D1146824F0010444F002041460E4
:1024A00000E0491E546804F00304022C01D0002906
:1024B000F7D1546804F00304022C01D0002002E09C
:1024C000012000E0002010BD014600200A6822F033
:1024D000010242F002020A604A6802F00302022A84
:1024E00000D10120704701464FF6FF7200200B68B3
:1024F00023F002030B6000E0521E4B6803F002035E
:10250000022B01D1002AF7D14B6803F00203022B02
:1025100000D001207047014600208A6902F0700057
:102520007047014600208A69100E7047014600205E
:102530008A69C2F3074070471AB143690B4343618C
:1025400002E043698B434361704710B502460020A7
:1025500011F4700F08D09369C1F31304234201D022
:1025600001202DE000202BE011F0807F08D053687F
:10257000C1F31304234201D0012021E000201FE019
:1025800011F0006F08D09368C1F31304234201D007
:10259000012015E0002013E011F0007F08D0D3687F
:1025A000C1F31304234201D0012009E0002007E019
:1025B0001369C1F31304234201D0012000E000207D
:1025C00010BD0022234B994202D10023836111E008
:1025D000C1F3130211F0007F01D0C2600AE011F0D4
:1025E000806F01D0026105E011F0006F01D08260C0
:1025F00000E042607047024600200A4201D00120FC
:1026000000E00020704770B504460D460026606962
:10261000284272D0B5F5807F69D01DDC082D42D0EC
:1026200006DC012D2DD0022D31D0042D7FD134E0D8
:10263000102D3ED0202D42D0402D78D145E0000015
:10264000030000040003000800000310000100085C
:102650000001FFF77000F030B5F5004F61D009DCE4
:10266000B5F5007F4AD0B5F5806F4DD0B5F5006F58
:102670005DD150E0B5F5803F2DD0B5F5003F56D186
:102680002FE0A0685549FFF7B6FF064651E0E06825
:102690000321FFF7B0FF06464BE0E0680821FFF793
:1026A000AAFF064645E0E0681021FFF7A4FF0646B2
:1026B0003FE020690321FFF79EFF064639E02069CD
:1026C0000821FFF798FF064633E020691021FFF745
:1026D00092FF06462DE060680821FFF78CFF064652
:1026E00027E060681021FFF786FF064621E0A06919
:1026F0000121FFF780FF06461BE01BE0A0690221D5
:10270000FFF779FF064614E0A0690421FFF773FF85
:1027100006460EE00BE0A0697021FFF76CFF06464D
:1027200007E060680421FFF766FF064601E0002627
:1027300000BF00E00026304670BDB1F5007F3AD002
:102740000FDC202928D006DC01291CD004291DD04B
:10275000082940D11DE0402921D0B1F5807F3AD130
:1027600026E0B1F5004F31D006DCB1F5806F25D001
:10277000B1F5006F2FD124E0B1F5803F12D0B1F553
:10278000003F28D111E0154A826025E00822C2608E
:1027900022E01022C2601FE0082202611CE0102229
:1027A000026119E00822426016E01022426013E044
:1027B0000422426010E0042242600DE004224260E4
:1027C0000AE0002282610422426005E00022826168
:1027D0000422426000E000BF00BF70470101010019
:1027E00010B54FF40061FE48FFF749FA012818D1EF
:1027F00000BF4FF48061FA48FFF75BFA4FF448706E
:1028000000F039FB4FF48061F548FFF754FA0120DE
:1028100000F067FB4FF40061F148FFF730FA012840
:10282000E7D000BF4FF48061ED48FFF742FA012086
:1028300000F057FB642000F01EFB4FF48061E84875
:10284000FFF739FA4FF40061E548FFF718FA00285E
:10285000E8D0022000F045FB10BD2DE9F84F81467D
:102860000F4614461D46DDE90AAB0020DD494870DD
:102870008870DDA1484601F021F810B1484600F00B
:10288000BDFE002637E04FF0000830E0012000F0E8
:10289000F2FAD4484078012827D1384600F052FF98
:1028A000024639460090CF48C01C00F06AFF10B9BC
:1028B0000120BDE8F88F204600F044FF0246214683
:1028C0000090C848C01C00F05CFF08B90220F0E787
:1028D000284600F037FF024629460090C148C01C38
:1028E00000F04FFF08B90320E3E708F10108D045E5
:1028F000CCD3701CC6B25E45C5DB0020D9E71CB541
:1029000001204FF4FA61B8A3B7A2CDE90010B8A135
:10291000B9A0FFF7A2FF322000F0ADFA01204FF47A
:10292000FA61B1A3B0A2CDE90010B1A1B6A0FFF742
:1029300094FF082041F28831ABA3ABA2CDE900108F
:10294000B4A1A9A0FFF789FF322000F094FA01207A
:102950004FF4FA61A4A3A4A2CDE90010A4A1B1A0F0
:10296000FFF77BFF322000F086FA01204FF4FA6176
:102970009DA39DA2CDE90010ADA1B3A0FFF76DFF0F
:10298000012801D000201CBD00224021B148FFF7E2
:1029900094F9322000F06FFA002404E0322000F0B5
:1029A0006AFA601CC4B201204FF4FA618EA38EA2B1
:1029B000CDE90010A8A1ACA0FFF74FFF012801D07E
:1029C0000A2CEBDB0A2C01D10020DCE7002260217D
:1029D000A048FFF772F9002404E0322000F04BFA1F
:1029E000601CC4B201204FF4FA617FA37EA2CDE93E
:1029F0000010A0A1A2A0FFF730FF012801D00A2CEF
:102A0000EBDB0A2C01D10020BDE7002270219148A8
:102A1000FFF753F901204FF4FA6173A372A2CDE9D5
:102A2000001073A199A0FFF718FF322000F023FADD
:102A300001204FF4FA616CA398A2CDE900109FA188
:102A4000A5A0FFF70AFF0446322000F014FA012C7B
:102A50000ED101204FF4FA6163A363A2CDE9001007
:102A600063A1A0A0FFF7F9FE322000F004FA0FE006
:102A7000022C0DD101204FF4FA615BA35AA2CDE9DB
:102A800000105BA19DA0FFF7E8FE1E2000F0F3F907
:102A900001204FF4FA6154A353A2CDE9001054A1D0
:102AA0009CA0FFF7DAFE322000F0E5F901204FF498
:102AB000FA614DA34CA2CDE900104DA199A0FFF7FA
:102AC000CCFE322000F0D7F901204FF4FA6146A382
:102AD00045A2CDE9001046A196A0FFF7BEFE322028
:102AE00000F0C9F901204FF4FA613FA33EA2CDE9FD
:102AF00000103FA193A0FFF7B0FE322000F0BBF919
:102B000001204FF4FA6138A337A2CDE9001038A1B3
:102B100090A0FFF7A2FE322000F0ADF901204FF4A3
:102B2000FA6131A330A2CDE9001031A18DA0FFF7E9
:102B300094FE322000F09FF9012041F288312AA34F
:102B400029A2CDE900102AA18CA0FFF786FE012062
:102B50004FF4FA6124A324A2CDE9001092A122A08F
:102B6000FFF77BFE0446012C06D10122782139486B
:102B7000FFF7A3F8012006E7002004E72DE9F84F4E
:102B80000746884615461E46DDE90A9B0020154982
:102B900048708870002405E0385D002100F0B5F928
:102BA000601CC4B24445F7D3002425E14FF0000A6D
:102BB0001DE1012000F05FF90A48407801280ED19C
:102BC000284600F0BFFD0246294600900548C01C7B
:102BD00000F0D7FD10B90120BDE8F88FECE004E16A
:102BE000000C01407C0000204E554C4C00000000C1
:102BF0000D0A4F4B0000000041542B4950523D310B
:102C000031353230300D0A004154453026570D0A17
:102C1000000000000D0A43616C6C2052656164790C
:102C20000000000041542B4346554E3D310D0A0033
:102C30000D0A2B4350494E3A2052454144590D0A42
:102C40000D0A4F4B0000000041542B4350494E3FAA
:102C50000D0A0000000801400D0A2B435245473A77
:102C600020302C310000000041542B435245473F97
:102C70000D0A00000D0A2B43474154543A203100FD
:102C800041542B43474154543F0D0A0041542B51AA
:102C9000494647434E543D300D0A00000D0A2B4370
:102CA0004F50533A20302C302C224348494E41207B
:102CB000554E49434F4D2047534D22000D0A2B439B
:102CC0004F50533A20302C302C224348494E41205B
:102CD0004D4F42494C45220041542B434F50533FE6
:102CE0000D0A000041542B5149435347503D312CAC
:102CF00022434D4E4554220D0A00000041542B51F1
:102D000049435347503D312C22554E494E4554229C
:102D10000D0A000041542B51494E44493D300D0AE3
:102D20000000000041542B5149484541443D300DBD
:102D30000A00000041542B514953484F5752413D1E
:102D4000300D0A0041542B514953484F5750543DC0
:102D5000300D0A0041542B51494D4F44453D300D33
:102D60000A00000041542B5149544346473D332C3F
:102D7000322C3531322C310D0A00000041542B51D8
:102D8000494F50454E3D22544350222C223231317E
:102D90002E3134392E3231372E323337222C22382D
:102DA000333833220D0A00000D0A434F4E4E45437F
:102DB00054204F4B00000000304600F0C3FC024698
:102DC000314600901C4800F0DCFC10B90220BDE840
:102DD000F88F484600F0B6FC024649460090164877
:102DE00000F0CFFC08B90320F1E70AF1010ADA4547
:102DF000FFF4DFAE601CC4B20C988442FFF6D6AE7E
:102E00000020E4E7F8B506460D460CA000680090E7
:102E100000240EE0295D3046FEF77FF8032C06DA29
:102E20002C208DF800006946304600F0F5FC601C4F
:102E3000C4B2042CEEDBF8BD7F000020300000009F
:102E40004FF0E021096921F004014FF0E022116107
:102E5000C21700EB5272D210284B1A70194609782B
:102E600001EB4102C2EBC1114FF6FF7202EAC10150
:102E7000234A118070470146214A12884A434FF085
:102E8000E0235A6100229A6101221A6100BF4FF0CB
:102E9000E022106910F0010F02D010F4803FF6D04C
:102EA00000224FF0E0231A619A6170470146134AED
:102EB00012784A434FF0E0235A6100229A610122BE
:102EC0001A6100BF4FF0E022106910F0010F02D02C
:102ED00010F4803FF6D000224FF0E0231A619A618F
:102EE000704730B50446002505E04FF47A70FFF7CF
:102EF000C2FF681C85B2A542F7D330BD5C0000203C
:102F00005E000020014600BF704700BFFE4A1288E5
:102F100012F0400FFAD0C2B2FB4B1B1D1A80704753
:102F2000014600BF704708B501210820FEF7DCFA12
:102F30004FF48060ADF8000003208DF802001020EF
:102F40008DF803006946F148FEF708FE4FF4006073
:102F5000ADF8000003208DF8020004208DF8030076
:102F60006946EA48FEF7FAFD08BD30B585B004466B
:102F7000012144F20400FEF7B7FA4FF40070ADF8F7
:102F8000100018208DF8130003208DF8120004A9FA
:102F9000DF48FEF7E3FD4FF48060ADF81000042039
:102FA0008DF8130003208DF8120004A9D848FEF70D
:102FB000D5FD00940020ADF80400ADF80600ADF892
:102FC0000800ADF80C000C20ADF80A006946CE48A8
:102FD000FEF735FB00BFCC48001D0088C5B2CA48CB
:102FE0000088C5B2012240F22551C748FEF7BFFB59
:102FF0000121C548FEF7AFFB05B030BD30B585B047
:10300000044601210420FEF76FFA01214804FEF76F
:1030100078FA0420ADF8100018208DF81300032072
:103020008DF8120004A9BA48FEF798FD0820ADF803
:10303000100004208DF8130003208DF8120004A95D
:10304000B348FEF78BFD00940020ADF80400ADF806
:103050000600ADF80800ADF80C000C20ADF80A0031
:103060006946AC48FEF7EBFA00BFAA48001D00888D
:10307000C5B2A8480088C5B2012240F22551A54832
:10308000FEF775FB0121A348FEF765FB05B030BDD7
:10309000704708B54FF4C060FEF792FC25208DF80C
:1030A000000000208DF8010001208DF802008DF84D
:1030B00003006846FEF789FC14208DF8000000200C
:1030C0008DF8010001208DF802008DF8030068469C
:1030D000FEF77BFC26208DF8000003208DF8010010
:1030E00002208DF8020001208DF803006846FEF7EB
:1030F0006CFC03208DF8000000208DF801000120F9
:103100008DF802008DF803006846FEF75EFC08BDEE
:1031100008B501210420FEF7E7F90820ADF800000A
:1031200010208DF8030003208DF8020069467848CE
:10313000FEF714FD1020ADF8000069467448FEF754
:103140000DFD2020ADF8000069467148FEF706FD30
:103150004020ADF8000069466D48FEF7FFFC0122F3
:1031600078216B48FEF7A9FD08BD70B5044600251F
:1031700013E0002278216648FEF79FFD4FF4FA70B5
:10318000FFF779FE012278216148FEF796FD4FF4A2
:10319000FA70FFF770FE681CC5B2A542E9DB70BD8E
:1031A0000246002002E000231354401C8842FAD358
:1031B000704708B501210920FEF796F94FF4807099
:1031C000ADF8000004208DF8030069464F48FEF773
:1031D000C5FC4FF40070ADF8000018208DF8030016
:1031E00003208DF8020069464848FEF7B7FC01212C
:1031F0004FF4EA10FEF781FD08BD3EB504460121FB
:103200004806FEF77EF94448FEF7F4FD6846FEF7EF
:1032100015FF00208DF806008DF807008DF80800D6
:103220008DF809008DF80A008DF80B008DF802006A
:103230008DF803000A208DF8040005208DF80500A4
:10324000ADF8004069463448FEF7EDFD3EBD2DE97E
:10325000FF4107460C4615461E4600208DF80A0021
:103260008DF80B0001208DF80C00C7F34F30ADF83E
:103270000000042000EBC70080B2ADF80200C5F3E7
:103280004F30ADF80400042000EBC50080B2ADF86B
:1032900006000020ADF8080001208DF80D006846FA
:1032A000FEF74BFE01208DF80A00C4F34F30ADF855
:1032B0000000042000EBC40080B2ADF80200C6F3A9
:1032C0004F30ADF80400042000EBC60080B2ADF82A
:1032D00006006846FEF731FE012202210E48FFF784
:1032E0002BF9BDE8FF812DE9FF4104460D46164646
:1032F0001F46DDF82880E0B28DF80A0000208DF826
:103300000B008DF80C0009E000380140000C014072
:103310000008014000440040006400404FF6FF7088
:1033200000EA4510ADF800004FF6FF7000EA4610C5
:10333000ADF80200ADF80470ADF806800020ADF8DD
:10334000080001208DF80D006846FEF7F6FDBDE887
:10335000FF81000000210020674A126842F4803299
:10336000654B1A6000BF644A126802F40030491CC1
:1033700010B9B1F5A06FF6D15F4A126812F4003FA0
:1033800001D0012000E00020012842D15B4A1268F0
:1033900042F01002594B1A601A46126822F00302DA
:1033A0001A601A46126842F002021A60524A5268C3
:1033B000514B5A601A4652685A601A46526842F493
:1033C00080625A601A46526822F47C125A601A4689
:1033D000526842F4E8125A601A46126842F080724B
:1033E0001A6000BF444A126812F0007FFAD0424AC5
:1033F000526822F00302404B5A601A46526842F06B
:1034000002025A6000BF3C4A526802F00C02082ACD
:10341000F9D1704710B5FFF79DFF10BD10B53648C4
:10342000006840F0010034490860084640683449AB
:1034300008403149486008460068324908402E4932
:1034400008600846006820F480200860084640684C
:1034500020F4FE0048604FF41F008860FFF7DAFF99
:103460004FF000602849086010BD10B50021002011
:103470000022214B5B6803F00C0121B1042906D026
:10348000082928D107E0214B214C236027E01F4B5E
:103490001F4C236023E0184B5B6803F47010164B3D
:1034A0005B6803F48032022303EB904022B9194B8E
:1034B0004343174C23600DE00F4B5B6813F4003F50
:1034C00004D0144B4343124C236003E00F4B43439F
:1034D0000F4C236003E00D4B0D4C236000BF00BF79
:1034E000054B5B68C3F303130B4CE15C084B1B6893
:1034F000CB40074C236010BD00100240002002406A
:103500000000FFF8FFFFF6FE08ED00E000127A0071
:103510006400002000093D00680000200948804741
:1035200009480047FEE7FEE7FEE7FEE7FEE7FEE7A5
:10353000FEE7FEE7FEE7FEE704480549054A064BBD
:10354000704700001D340008ED000008E80C002062
:10355000E8120020E80E0020E80E002008B5FFF772
:1035600028FE1020FFF749FE7A212148FFF718FEB8
:1035700000200346024601460090FFF7B4FE08BD56
:1035800030B50246138899B2442930DC0A292EDB73
:1035900000202AE0A1F10A0303EBC304144B9B1C97
:1035A00023441C5C02F10B031B5C9C421BD002F108
:1035B0000B031C5CA1F10A0303EBC3050C4B9B1C22
:1035C0002B441C540124A1F10A0303EBC305084B4F
:1035D0009B1C2B441C72064B1B885B1C044C2380D9
:1035E0000123044C2370431CD8B20828D2DB30BD21
:1035F000540A002078000020704700000FB40449EE
:1036000010B503AA029800F09DF910BC5DF814FBF8
:10361000600000202DE9F04104460E4600202062A3
:103620002046E168884738B3252806D0D4E901212F
:103630009047206A401C2062F2E7E168204600279C
:103640008847050018D0A5F14100192802D8203577
:103650004FF400673246294620462760FCF780FD7C
:1036600040B1012804D0F61D26F007060836D7E73A
:10367000361DD5E72846D9E7206ABDE8F08100006D
:103680000EB5054614460E4612A000F075F9284600
:1036900000F072F915A000F06FF9304600F06CF9F7
:1036A00014A000F069F900218DF80B100A210DF12A
:1036B0000A008DF80A1007E0224694FBF1F401FBA2
:1036C0001422303200F8012D002CF5DC00F054F902
:1036D00000F04AF92A2A2A20617373657274696FAF
:1036E0006E206661696C65643A2000002C20666972
:1036F0006C6520002C206C696E65200040EA010397
:10370000024630B59B0710D14FF0013400E008C2EB
:1037100008C91D1B9D4315EAC41FF8D013F0FF0113
:1037200002F8011B0DD01B0AF8E711F8013B002B32
:1037300002F8013B05D011F8013B002B02F8013BD8
:10374000F3D130BD10B5431C02E010F8011B71B17C
:103750008107FAD14FF0013202C88C1A8C4314EA67
:10376000C211F9D0C01A0A0603D0C01E10BDC01A7B
:1037700010BD0A0401D0801E10BD0902FCD0401EFD
:1037800010BD40EA010370B59B072ED14FF0013602
:10379000042A2AD308C810C9121F9D1B9D4315EA8D
:1037A000C61517D0D8B2E1B2401A50EA056110D15F
:1037B00098B2A1B2401A50EA05410AD123F07F40E5
:1037C00024F07F41401A50EA052102D1180EA0EBE7
:1037D000146070BDA342DBD018BA21BA884201D967
:1037E000012070BD4FF0FF3070BD0AB9002070BDE0
:1037F00010F8013B11F8014B63B1A3420AD1521EEC
:1038000008D010F8013B11F8014B1BB1A34201D1C4
:10381000521EEDD1181B70BD421E12F8013F002B45
:10382000FBD111F8013B002B02F8013BF9D17047A5
:10383000032A40F2308010F0030C00F0158011F8DC
:10384000013BBCF1020F624498BF11F801CB00F8B4
:10385000013B38BF11F8013BA2F1040298BF00F808
:1038600001CB38BF00F8013B11F0030300F08E805C
:10387000083AC0F0088051F8043B083A51F804CBEC
:10388000A0E80810F5E7121D5CBF51F8043B40F8B2
:10389000043BAFF30080D20724BF11F8013B11F8BD
:1038A00001CB48BF11F8012B24BF00F8013B00F801
:1038B00001CB48BF00F8012B704700004FF0013CDE
:1038C00050F8042B51F8043B9A4221D1A2EB0C038F
:1038D000934313EACC1317D150F8042B51F8043B4F
:1038E0009A4215D1A2EB0C03934313EACC130BD1EC
:1038F00050F8042B51F8043B9A4209D1A2EB0C0377
:10390000934313EACC13DBD04FF00000704700BFA5
:10391000D01A01BAB1FA81F101F0180122FA01F0CE
:10392000CB40C1F12001DBB2C0B2C01A2CFA01F3C6
:10393000D11A914311EAC311E6D17047704770471D
:1039400070477047074B70B50D467B4400F055F843
:103950000446284600F064F810B14FF0FF3070BD07
:10396000204670BDBDF5FFFF002000F05DF8FCF7BC
:10397000FBFB0120FFF7C6FA10B5044602E0641C09
:10398000FFF7CEFA20780028F9D110BD10B5203A03
:10399000C0F00B80B1E81850203AA0E81850B1E808
:1039A0001850A0E81850BFF4F5AF5FEA027C24BFBE
:1039B000B1E81850A0E8185044BF18C918C0BDE8B5
:1039C00010405FEA827C24BF51F8043B40F8043B7E
:1039D00008BF7047D20728BF31F8023B48BF11F833
:1039E000012B28BF20F8023B48BF00F8012B70478D
:1039F00001694A1C02610878704700B58FB0CDE9B3
:103A000001310021059105497944CDE903101146A2
:103A10006846FFF7FFFD0FB000BD0000E5FFFFFFA8
:103A2000007B00F08000704710B500F035F8BDE86D
:103A3000104000F02BB8754600F046F8AE46050081
:103A40006946534620F00700854618B020B5FFF7B9
:103A500073FDBDE820404FF000064FF000074FF027
:103A600000084FF0000B21F00701AC46ACE8C0099C
:103A7000ACE8C009ACE8C009ACE8C0098D467047A5
:103A80000446AFF300802046FCF779FB002801D004
:103A9000FFF738BA7047000010B5002102A000F00F
:103AA00017F8012010BD0000534947414252543AD3
:103AB0002041626E6F726D616C207465726D696E0B
:103AC0006174696F6E00000000487047880C002028
:103AD00070B505460C460A2000E06D1CFFF720FA81
:103AE00035B128780028F8D102E0641CFFF718FAF5
:103AF00014B120780028F8D1BDE870400A20FFF703
:103B00000FBA0000243B0008000000207C000000E9
:103B100028010008A03B00087C0000206C12000077
:103B200044010008000000001E0303007A72F091B7
:103B3000BF20D395D9EDBF20636D6E657400000082
:103B400000000000000000000012345678093C001C
:103B5000000000005A00000000000000000000000B
:103B60000000000000000000000000000000000154
:103B70000203040102030406070809020406080000
:103B8000000000000000000000A24A040000000045
:103B900000000000010203040607080900000000FD
:04000005080000ED02
:00000001FF
